{
  "contractName": "Appointment",
  "abi": [
    {
      "constant": true,
      "inputs": [
        {
          "name": "",
          "type": "uint256"
        }
      ],
      "name": "visits",
      "outputs": [
        {
          "name": "id",
          "type": "uint256"
        },
        {
          "name": "bloodPressure",
          "type": "string"
        },
        {
          "name": "pulse",
          "type": "string"
        },
        {
          "name": "oxygen",
          "type": "string"
        },
        {
          "name": "glucose",
          "type": "string"
        },
        {
          "name": "reason",
          "type": "string"
        },
        {
          "name": "diagnosis",
          "type": "string"
        },
        {
          "name": "perscription",
          "type": "address"
        }
      ],
      "payable": false,
      "stateMutability": "view",
      "type": "function",
      "signature": "0x09c55a13"
    },
    {
      "constant": true,
      "inputs": [],
      "name": "visitCount",
      "outputs": [
        {
          "name": "",
          "type": "uint256"
        }
      ],
      "payable": false,
      "stateMutability": "view",
      "type": "function",
      "signature": "0xe0e4367e"
    },
    {
      "constant": false,
      "inputs": [
        {
          "name": "_bloodPressure",
          "type": "string"
        },
        {
          "name": "_pulse",
          "type": "string"
        },
        {
          "name": "_oxygen",
          "type": "string"
        },
        {
          "name": "_glucose",
          "type": "string"
        },
        {
          "name": "_reason",
          "type": "string"
        },
        {
          "name": "_diagnosis",
          "type": "string"
        },
        {
          "name": "_perscription",
          "type": "address"
        }
      ],
      "name": "createVisit",
      "outputs": [],
      "payable": false,
      "stateMutability": "nonpayable",
      "type": "function",
      "signature": "0x4aa12025"
    }
  ],
  "bytecode": "0x60806040526000805534801561001457600080fd5b50610a32806100246000396000f3fe6080604052600436106100565763ffffffff7c010000000000000000000000000000000000000000000000000000000060003504166309c55a13811461005b5780634aa1202514610098578063e0e4367e146100ba575b600080fd5b34801561006757600080fd5b5061007b61007636600461080e565b6100dc565b60405161008f989796959493929190610895565b60405180910390f35b3480156100a457600080fd5b506100b86100b33660046106e3565b610470565b005b3480156100c657600080fd5b506100cf6105cf565b60405161008f9190610881565b600160208181526000928352604092839020805481840180548651600296821615610100026000190190911695909504601f810185900485028601850190965285855290949193929091908301828280156101785780601f1061014d57610100808354040283529160200191610178565b820191906000526020600020905b81548152906001019060200180831161015b57829003601f168201915b50505060028085018054604080516020601f600019610100600187161502019094169590950492830185900485028101850190915281815295969594509092509083018282801561020a5780601f106101df5761010080835404028352916020019161020a565b820191906000526020600020905b8154815290600101906020018083116101ed57829003601f168201915b5050505060038301805460408051602060026001851615610100026000190190941693909304601f810184900484028201840190925281815294959493509083018282801561029a5780601f1061026f5761010080835404028352916020019161029a565b820191906000526020600020905b81548152906001019060200180831161027d57829003601f168201915b5050505060048301805460408051602060026001851615610100026000190190941693909304601f810184900484028201840190925281815294959493509083018282801561032a5780601f106102ff5761010080835404028352916020019161032a565b820191906000526020600020905b81548152906001019060200180831161030d57829003601f168201915b5050505060058301805460408051602060026001851615610100026000190190941693909304601f81018490048402820184019092528181529495949350908301828280156103ba5780601f1061038f576101008083540402835291602001916103ba565b820191906000526020600020905b81548152906001019060200180831161039d57829003601f168201915b5050505060068301805460408051602060026001851615610100026000190190941693909304601f810184900484028201840190925281815294959493509083018282801561044a5780601f1061041f5761010080835404028352916020019161044a565b820191906000526020600020905b81548152906001019060200180831161042d57829003601f168201915b5050506007909301549192505073ffffffffffffffffffffffffffffffffffffffff1688565b600080546001908101808355604080516101008101825282815260208082018d81528284018d9052606083018c9052608083018b905260a083018a905260c0830189905273ffffffffffffffffffffffffffffffffffffffff881660e084015293865284815291909420845181559151805192936104f6939085019291909101906105d5565b50604082015180516105129160028401916020909101906105d5565b506060820151805161052e9160038401916020909101906105d5565b506080820151805161054a9160048401916020909101906105d5565b5060a082015180516105669160058401916020909101906105d5565b5060c082015180516105829160068401916020909101906105d5565b5060e091909101516007909101805473ffffffffffffffffffffffffffffffffffffffff191673ffffffffffffffffffffffffffffffffffffffff90921691909117905550505050505050565b60005481565b828054600181600116156101000203166002900490600052602060002090601f016020900481019282601f1061061657805160ff1916838001178555610643565b82800160010185558215610643579182015b82811115610643578251825591602001919060010190610628565b5061064f929150610653565b5090565b61066d91905b8082111561064f5760008155600101610659565b90565b600061067c82356109a7565b9392505050565b6000601f8201831361069457600080fd5b81356106a76106a28261095d565b610936565b915080825260208301602083018583830111156106c357600080fd5b6106ce8382846109b2565b50505092915050565b600061067c823561066d565b600080600080600080600060e0888a0312156106fe57600080fd5b873567ffffffffffffffff81111561071557600080fd5b6107218a828b01610683565b975050602088013567ffffffffffffffff81111561073e57600080fd5b61074a8a828b01610683565b965050604088013567ffffffffffffffff81111561076757600080fd5b6107738a828b01610683565b955050606088013567ffffffffffffffff81111561079057600080fd5b61079c8a828b01610683565b945050608088013567ffffffffffffffff8111156107b957600080fd5b6107c58a828b01610683565b93505060a088013567ffffffffffffffff8111156107e257600080fd5b6107ee8a828b01610683565b92505060c06107ff8a828b01610670565b91505092959891949750929550565b60006020828403121561082057600080fd5b600061082c84846106d7565b949350505050565b61083d816109a7565b82525050565b600061084e82610985565b8084526108628160208601602086016109be565b61086b816109ee565b9093016020019392505050565b61083d8161066d565b6020810161088f8284610878565b92915050565b61010081016108a4828b610878565b81810360208301526108b6818a610843565b905081810360408301526108ca8189610843565b905081810360608301526108de8188610843565b905081810360808301526108f28187610843565b905081810360a08301526109068186610843565b905081810360c083015261091a8185610843565b905061092960e0830184610834565b9998505050505050505050565b60405181810167ffffffffffffffff8111828210171561095557600080fd5b604052919050565b600067ffffffffffffffff82111561097457600080fd5b506020601f91909101601f19160190565b5190565b600073ffffffffffffffffffffffffffffffffffffffff821661088f565b600061088f82610989565b82818337506000910152565b60005b838110156109d95781810151838201526020016109c1565b838111156109e8576000848401525b50505050565b601f01601f19169056fea265627a7a72305820c43162eed11b23b4d408e59307bda06423cb73d265e3dba2dbea0b432e32cf506c6578706572696d656e74616cf50037",
  "source": "//SPDX-License-Identifier: UNLICENSED\npragma solidity >=0.5.0 <0.9.0;\npragma experimental ABIEncoderV2;\nimport {Medication} from\"./Medication.sol\";\ncontract Appointment{\n    uint public visitCount=0;\n \n struct Visit{\n    uint id;\n    string bloodPressure;\n    string pulse;\n    string oxygen;\n    string glucose;\n    string reason;\n    string diagnosis;\n    Medication perscription;\n    \n }\n\n mapping(uint=>Visit) public visits; //store patients in db aka blockchain ,treat this like a model\n\n function createVisit(string memory _bloodPressure,string memory _pulse, \n    string memory _oxygen,      //keyword memory temporarly stores data in vars\n    string memory _glucose,string memory _reason ,\n    string memory _diagnosis,Medication _perscription) public {\n     visitCount++;    \n\n     visits[visitCount]=Visit(visitCount,_bloodPressure,_pulse,_oxygen,_glucose,\n     _reason,_diagnosis,_perscription);\n } \n\n}",
  "sourcePath": "/home/osama/Desktop/security-project/SecurityProject/contracts/Appointment.sol",
  "compiler": {
    "name": "solc",
    "version": "0.5.0+commit.1d4f565a.Emscripten.clang"
  },
  "schemaVersion": "3.0.1",
  "updatedAt": "2022-05-31T19:33:35.417Z",
  "devdoc": {
    "methods": {}
  },
  "userdoc": {
    "methods": {}
  }
}