{
  "contractName": "Healthcare",
  "abi": [
    {
      "constant": true,
      "inputs": [],
      "name": "patientcount",
      "outputs": [
        {
          "name": "",
          "type": "uint256"
        }
      ],
      "payable": false,
      "stateMutability": "view",
      "type": "function",
      "signature": "0x86ec81f2"
    }
  ],
  "bytecode": "0x608060405260008055348015601357600080fd5b506099806100226000396000f3fe608060405260043610603e5763ffffffff7c010000000000000000000000000000000000000000000000000000000060003504166386ec81f281146043575b600080fd5b348015604e57600080fd5b5060556067565b60408051918252519081900360200190f35b6000548156fea165627a7a72305820446fd8bd7e3fb38bacc83e1d388da85bc9a8ac1e0952e49ed7992aebdd1c3c5b0029",
  "source": "//SPDX-License-Identifier: UNLICENSED\r\npragma solidity >=0.5.0 <0.9.0;\r\n\r\ncontract Healthcare{\r\n    uint public patientcount=0;\r\n \r\n}\r\n\r\n",
  "sourcePath": "A:/SecurityProj/contracts/Healthcare.sol",
  "compiler": {
    "name": "solc",
    "version": "0.5.0+commit.1d4f565a.Emscripten.clang"
  },
  "schemaVersion": "3.0.1",
  "updatedAt": "2022-05-30T16:12:32.292Z",
  "devdoc": {
    "methods": {}
  },
  "userdoc": {
    "methods": {}
  }
}