{
  "contractName": "Healthcare",
  "abi": [
    {
      "constant": true,
      "inputs": [
        {
          "name": "",
          "type": "uint256"
        }
      ],
      "name": "patients",
      "outputs": [
        {
          "name": "id",
          "type": "uint256"
        },
        {
          "name": "name",
          "type": "string"
        },
        {
          "name": "age",
          "type": "uint256"
        },
        {
          "name": "weight",
          "type": "string"
        },
        {
          "name": "height",
          "type": "string"
        },
        {
          "name": "sex",
          "type": "string"
        },
        {
          "name": "bloodPressure",
          "type": "string"
        },
        {
          "name": "pulse",
          "type": "string"
        },
        {
          "name": "oxygen",
          "type": "string"
        },
        {
          "name": "glucose",
          "type": "string"
        }
      ],
      "payable": false,
      "stateMutability": "view",
      "type": "function",
      "signature": "0x93119a83"
    },
    {
      "constant": true,
      "inputs": [],
      "name": "patientCount",
      "outputs": [
        {
          "name": "",
          "type": "uint256"
        }
      ],
      "payable": false,
      "stateMutability": "view",
      "type": "function",
      "signature": "0xa0303c41"
    },
    {
      "constant": false,
      "inputs": [
        {
          "name": "_name",
          "type": "string"
        },
        {
          "name": "_sex",
          "type": "string"
        },
        {
          "name": "_weight",
          "type": "string"
        },
        {
          "name": "_height",
          "type": "string"
        },
        {
          "name": "_age",
          "type": "uint256"
        },
        {
          "name": "_bloodPressure",
          "type": "string"
        },
        {
          "name": "_pulse",
          "type": "string"
        },
        {
          "name": "_oxygen",
          "type": "string"
        },
        {
          "name": "_glucose",
          "type": "string"
        },
        {
          "name": "_oldVisits",
          "type": "address[]"
        }
      ],
      "name": "createPatient",
      "outputs": [],
      "payable": false,
      "stateMutability": "nonpayable",
      "type": "function",
      "signature": "0x3e56a021"
    }
  ],
  "bytecode": "0x60806040526000805534801561001457600080fd5b50610d63806100246000396000f3fe6080604052600436106100565763ffffffff7c01000000000000000000000000000000000000000000000000000000006000350416633e56a021811461005b57806393119a831461007d578063a0303c41146100bc575b600080fd5b34801561006757600080fd5b5061007b61007636600461094c565b6100de565b005b34801561008957600080fd5b5061009d610098366004610afc565b610274565b6040516100b39a99989796959493929190610b7a565b60405180910390f35b3480156100c857600080fd5b506100d1610712565b6040516100b39190610b66565b60008081548092919060010191905055506101606040519081016040528060005481526020018b81526020018781526020018981526020018881526020018a8152602001868152602001858152602001848152602001838152602001828152506001600080548152602001908152602001600020600082015181600001556020820151816001019080519060200190610178929190610718565b50604082015160028201556060820151805161019e916003840191602090910190610718565b50608082015180516101ba916004840191602090910190610718565b5060a082015180516101d6916005840191602090910190610718565b5060c082015180516101f2916006840191602090910190610718565b5060e0820151805161020e916007840191602090910190610718565b50610100820151805161022b916008840191602090910190610718565b506101208201518051610248916009840191602090910190610718565b50610140820151805161026591600a840191602090910190610796565b50505050505050505050505050565b600160208181526000928352604092839020805481840180548651600296821615610100026000190190911695909504601f810185900485028601850190965285855290949193929091908301828280156103105780601f106102e557610100808354040283529160200191610310565b820191906000526020600020905b8154815290600101906020018083116102f357829003601f168201915b505050506002838101546003850180546040805160206001841615610100026000190190931695909504601f8101839004830286018301909152808552959692959294509091908301828280156103a85780601f1061037d576101008083540402835291602001916103a8565b820191906000526020600020905b81548152906001019060200180831161038b57829003601f168201915b5050505060048301805460408051602060026001851615610100026000190190941693909304601f81018490048402820184019092528181529495949350908301828280156104385780601f1061040d57610100808354040283529160200191610438565b820191906000526020600020905b81548152906001019060200180831161041b57829003601f168201915b5050505060058301805460408051602060026001851615610100026000190190941693909304601f81018490048402820184019092528181529495949350908301828280156104c85780601f1061049d576101008083540402835291602001916104c8565b820191906000526020600020905b8154815290600101906020018083116104ab57829003601f168201915b5050505060068301805460408051602060026001851615610100026000190190941693909304601f81018490048402820184019092528181529495949350908301828280156105585780601f1061052d57610100808354040283529160200191610558565b820191906000526020600020905b81548152906001019060200180831161053b57829003601f168201915b5050505060078301805460408051602060026001851615610100026000190190941693909304601f81018490048402820184019092528181529495949350908301828280156105e85780601f106105bd576101008083540402835291602001916105e8565b820191906000526020600020905b8154815290600101906020018083116105cb57829003601f168201915b5050505060088301805460408051602060026001851615610100026000190190941693909304601f81018490048402820184019092528181529495949350908301828280156106785780601f1061064d57610100808354040283529160200191610678565b820191906000526020600020905b81548152906001019060200180831161065b57829003601f168201915b5050505060098301805460408051602060026001851615610100026000190190941693909304601f81018490048402820184019092528181529495949350908301828280156107085780601f106106dd57610100808354040283529160200191610708565b820191906000526020600020905b8154815290600101906020018083116106eb57829003601f168201915b505050505090508a565b60005481565b828054600181600116156101000203166002900490600052602060002090601f016020900481019282601f1061075957805160ff1916838001178555610786565b82800160010185558215610786579182015b8281111561078657825182559160200191906001019061076b565b50610792929150610811565b5090565b828054828255906000526020600020908101928215610805579160200282015b82811115610805578251825473ffffffffffffffffffffffffffffffffffffffff191673ffffffffffffffffffffffffffffffffffffffff9091161782556020909201916001909101906107b6565b5061079292915061082e565b61082b91905b808211156107925760008155600101610817565b90565b61082b91905b8082111561079257805473ffffffffffffffffffffffffffffffffffffffff19168155600101610834565b6000601f8201831361087057600080fd5b813561088361087e82610c6d565b610c46565b915081818352602084019350602081019050838560208402820111156108a857600080fd5b60005b838110156108d457816108be88826108de565b84525060209283019291909101906001016108ab565b5050505092915050565b60006108ea8235610cd8565b9392505050565b6000601f8201831361090257600080fd5b813561091061087e82610c8e565b9150808252602083016020830185838301111561092c57600080fd5b610937838284610ce3565b50505092915050565b60006108ea823561082b565b6000806000806000806000806000806101408b8d03121561096c57600080fd5b8a3567ffffffffffffffff81111561098357600080fd5b61098f8d828e016108f1565b9a505060208b013567ffffffffffffffff8111156109ac57600080fd5b6109b88d828e016108f1565b99505060408b013567ffffffffffffffff8111156109d557600080fd5b6109e18d828e016108f1565b98505060608b013567ffffffffffffffff8111156109fe57600080fd5b610a0a8d828e016108f1565b9750506080610a1b8d828e01610940565b96505060a08b013567ffffffffffffffff811115610a3857600080fd5b610a448d828e016108f1565b95505060c08b013567ffffffffffffffff811115610a6157600080fd5b610a6d8d828e016108f1565b94505060e08b013567ffffffffffffffff811115610a8a57600080fd5b610a968d828e016108f1565b9350506101008b013567ffffffffffffffff811115610ab457600080fd5b610ac08d828e016108f1565b9250506101208b013567ffffffffffffffff811115610ade57600080fd5b610aea8d828e0161085f565b9150509295989b9194979a5092959850565b600060208284031215610b0e57600080fd5b6000610b1a8484610940565b949350505050565b6000610b2d82610cb6565b808452610b41816020860160208601610cef565b610b4a81610d1f565b9093016020019392505050565b610b608161082b565b82525050565b60208101610b748284610b57565b92915050565b6101408101610b89828d610b57565b8181036020830152610b9b818c610b22565b9050610baa604083018b610b57565b8181036060830152610bbc818a610b22565b90508181036080830152610bd08189610b22565b905081810360a0830152610be48188610b22565b905081810360c0830152610bf88187610b22565b905081810360e0830152610c0c8186610b22565b9050818103610100830152610c218185610b22565b9050818103610120830152610c368184610b22565b9c9b505050505050505050505050565b60405181810167ffffffffffffffff81118282101715610c6557600080fd5b604052919050565b600067ffffffffffffffff821115610c8457600080fd5b5060209081020190565b600067ffffffffffffffff821115610ca557600080fd5b506020601f91909101601f19160190565b5190565b600073ffffffffffffffffffffffffffffffffffffffff8216610b74565b6000610b7482610cba565b82818337506000910152565b60005b83811015610d0a578181015183820152602001610cf2565b83811115610d19576000848401525b50505050565b601f01601f19169056fea265627a7a72305820156a436b418e474f14b233a872361b1d5e531c88ef1c5900eac7048235c9dfa76c6578706572696d656e74616cf50037",
  "source": "//SPDX-License-Identifier: UNLICENSED\npragma solidity >=0.5.0 <0.9.0;\npragma experimental ABIEncoderV2;\nimport {Appointment} from \"./Appointment.sol\";\ncontract Healthcare{\n    uint public patientCount=0;\n \n struct Patient{\n    uint id;\n    string name;\n    uint age;\n    string weight;\n    string height;\n    string sex;\n    string bloodPressure;\n    string pulse;\n    string oxygen;\n    string glucose;\n    Appointment[] oldVisits;\n\n }\n\n mapping(uint=>Patient) public patients; //store patients in db aka blockchain ,treat this like a model\n//keyword memory temporarly stores data in vars\n function createPatient(string memory _name,string memory _sex ,string memory _weight ,\n    string memory _height,uint _age,\n    string memory _bloodPressure,string memory _pulse, \n    string memory _oxygen, \n    string memory _glucose,   \n    Appointment[] memory _oldVisits)public {\n     patientCount++;    \n\n     patients[patientCount]=Patient(patientCount,_name,_age,_weight,_height,\n     _sex,_bloodPressure,_pulse,_oxygen,_glucose,_oldVisits);\n } \n\n}\n\n\n\n\n\n",
  "sourcePath": "/home/osama/Desktop/security-project/SecurityProject/contracts/Healthcare.sol",
  "compiler": {
    "name": "solc",
    "version": "0.5.0+commit.1d4f565a.Emscripten.clang"
  },
  "schemaVersion": "3.0.1",
  "updatedAt": "2022-05-31T19:33:35.419Z",
  "devdoc": {
    "methods": {}
  },
  "userdoc": {
    "methods": {}
  }
}