{
  "contractName": "Medication",
  "abi": [
    {
      "constant": true,
      "inputs": [
        {
          "name": "",
          "type": "uint256"
        }
      ],
      "name": "perscriptions",
      "outputs": [
        {
          "name": "id",
          "type": "uint256"
        },
        {
          "name": "followUpAppointment",
          "type": "string"
        },
        {
          "name": "refferalDoctor",
          "type": "string"
        }
      ],
      "payable": false,
      "stateMutability": "view",
      "type": "function",
      "signature": "0x58be0501"
    },
    {
      "constant": true,
      "inputs": [],
      "name": "perscriptionCount",
      "outputs": [
        {
          "name": "",
          "type": "uint256"
        }
      ],
      "payable": false,
      "stateMutability": "view",
      "type": "function",
      "signature": "0xd0baa2b1"
    },
    {
      "constant": false,
      "inputs": [
        {
          "name": "_medications",
          "type": "string[]"
        },
        {
          "name": "_doses",
          "type": "string[]"
        },
        {
          "name": "_intakePeriod",
          "type": "string[]"
        },
        {
          "name": "_followUpAppointment",
          "type": "string"
        },
        {
          "name": "_referralDoctor",
          "type": "string"
        },
        {
          "name": "_labTests",
          "type": "string[]"
        }
      ],
      "name": "createPatient",
      "outputs": [],
      "payable": false,
      "stateMutability": "nonpayable",
      "type": "function",
      "signature": "0xdda4ac36"
    }
  ],
  "bytecode": "0x60806040526000805534801561001457600080fd5b50610805806100246000396000f3fe6080604052600436106100565763ffffffff7c010000000000000000000000000000000000000000000000000000000060003504166358be0501811461005b578063d0baa2b114610093578063dda4ac36146100b5575b600080fd5b34801561006757600080fd5b5061007b610076366004610656565b6100d7565b60405161008a939291906106d4565b60405180910390f35b34801561009f57600080fd5b506100a861020e565b60405161008a91906106c0565b3480156100c157600080fd5b506100d56100d0366004610540565b610214565b005b60016020818152600092835260409283902080546004820180548651600296821615610100026000190190911695909504601f810185900485028601850190965285855290949193929091908301828280156101745780601f1061014957610100808354040283529160200191610174565b820191906000526020600020905b81548152906001019060200180831161015757829003601f168201915b5050505060058301805460408051602060026001851615610100026000190190941693909304601f81018490048402820184019092528181529495949350908301828280156102045780601f106101d957610100808354040283529160200191610204565b820191906000526020600020905b8154815290600101906020018083116101e757829003601f168201915b5050505050905083565b60005481565b6000805460019081018083556040805160e08101825282815260208082018c81528284018c9052606083018b9052608083018a905260a0830189905260c08301889052938652848152919094208451815591518051929361027d93908501929190910190610314565b5060408201518051610299916002840191602090910190610314565b50606082015180516102b5916003840191602090910190610314565b50608082015180516102d1916004840191602090910190610371565b5060a082015180516102ed916005840191602090910190610371565b5060c08201518051610309916006840191602090910190610314565b505050505050505050565b828054828255906000526020600020908101928215610361579160200282015b828111156103615782518051610351918491602090910190610371565b5091602001919060010190610334565b5061036d9291506103eb565b5090565b828054600181600116156101000203166002900490600052602060002090601f016020900481019282601f106103b257805160ff19168380011785556103df565b828001600101855582156103df579182015b828111156103df5782518255916020019190600101906103c4565b5061036d929150610411565b61040e91905b8082111561036d576000610405828261042b565b506001016103f1565b90565b61040e91905b8082111561036d5760008155600101610417565b50805460018160011615610100020316600290046000825580601f10610451575061046f565b601f01602090049060005260206000209081019061046f9190610411565b50565b6000601f8201831361048357600080fd5b813561049661049182610738565b610711565b81815260209384019390925082018360005b838110156104d457813586016104be88826104de565b84525060209283019291909101906001016104a8565b5050505092915050565b6000601f820183136104ef57600080fd5b81356104fd61049182610759565b9150808252602083016020830185838301111561051957600080fd5b610524838284610785565b50505092915050565b6000610539823561040e565b9392505050565b60008060008060008060c0878903121561055957600080fd5b863567ffffffffffffffff81111561057057600080fd5b61057c89828a01610472565b965050602087013567ffffffffffffffff81111561059957600080fd5b6105a589828a01610472565b955050604087013567ffffffffffffffff8111156105c257600080fd5b6105ce89828a01610472565b945050606087013567ffffffffffffffff8111156105eb57600080fd5b6105f789828a016104de565b935050608087013567ffffffffffffffff81111561061457600080fd5b61062089828a016104de565b92505060a087013567ffffffffffffffff81111561063d57600080fd5b61064989828a01610472565b9150509295509295509295565b60006020828403121561066857600080fd5b6000610674848461052d565b949350505050565b600061068782610781565b80845261069b816020860160208601610791565b6106a4816107c1565b9093016020019392505050565b6106ba8161040e565b82525050565b602081016106ce82846106b1565b92915050565b606081016106e282866106b1565b81810360208301526106f4818561067c565b90508181036040830152610708818461067c565b95945050505050565b60405181810167ffffffffffffffff8111828210171561073057600080fd5b604052919050565b600067ffffffffffffffff82111561074f57600080fd5b5060209081020190565b600067ffffffffffffffff82111561077057600080fd5b506020601f91909101601f19160190565b5190565b82818337506000910152565b60005b838110156107ac578181015183820152602001610794565b838111156107bb576000848401525b50505050565b601f01601f19169056fea265627a7a72305820778f279190d6e72b02da76e6b07162432ac0607ec90b3408fdedf3ef2081b4986c6578706572696d656e74616cf50037",
  "source": "//SPDX-License-Identifier: UNLICENSED\npragma solidity >=0.5.0 <0.9.0;\npragma experimental ABIEncoderV2;\n\ncontract Medication{\n    uint public perscriptionCount=0;\n \n struct Perscription{\n    uint id;\n    string[] medications;\n    string[] doses;\n    string[] intakePeriod;\n    string followUpAppointment;\n    string refferalDoctor;\n    string[] labTests;\n \n }\n\n mapping(uint=>Perscription) public perscriptions; //store patients in db aka blockchain ,treat this like a model\n//keyword memory temporarly stores data in vars\n function createPatient(string[] memory _medications,string[] memory _doses, \n    string[] memory _intakePeriod,      \n    string memory _followUpAppointment,string memory _referralDoctor ,\n    string[] memory _labTests) public {\n     perscriptionCount++;    \n\n     perscriptions[perscriptionCount]=Perscription(perscriptionCount,_medications,_doses,_intakePeriod,_followUpAppointment,\n     _referralDoctor,_labTests);\n } \n\n}",
  "sourcePath": "/home/osama/Desktop/security-project/SecurityProject/contracts/Medication.sol",
  "compiler": {
    "name": "solc",
    "version": "0.5.0+commit.1d4f565a.Emscripten.clang"
  },
  "schemaVersion": "3.0.1",
  "updatedAt": "2022-05-31T19:33:35.415Z",
  "devdoc": {
    "methods": {}
  },
  "userdoc": {
    "methods": {}
  }
}